:10000000BAC00000D3C00000D1C00000CFC00000C3
:10001000CDC00000CBC00000C9C00000C7C00000B8
:10002000C5C00000C3C000000EC60000BFC0000075
:10003000BDC00000BBC00000B9C00000B7C00000D8
:10004000B5C00000B3C00000B1C00000AFC00000E8
:10005000ADC00000ABC00000A9C00000A7C00000F8
:10006000A5C00000E7C20000A1C000009FC00000C2
:100070009DC000009BC0000099C0000097C0000018
:1000800095C0000093C0000091C000008FC0000028
:100090008DC000008BC0000089C0000087C0000038
:1000A00085C0000083C0000081C000002E034C000A
:1000B00055004600410020004B00650079006200B9
:1000C0006F00610072006400200045006D00750043
:1000D0006C00610074006F00720000001A0347009A
:1000E0006F006F0067006C00650020005300650022
:1000F000720076006F000000040309040902290061
:10010000010100E03209040000020301010009219D
:1001100011010001223F00070581030800050705C2
:1001200002030800051201100100000008EB034261
:100130002001000102000105010906A101050719BE
:10014000E029E715002501750195088102950175E3
:100150000881010508190129059505750191029588
:10016000017503910115002565050719002965959D
:100170000675088100C011241FBECFEFDAE0DEBF94
:10018000CDBF11E0A0E0B1E0E2EEF0E102C00590E9
:100190000D92A238B107D9F722E0A2E8B1E001C080
:1001A0001D92A73BB207E1F7C4D299C729CFFC0142
:1001B000A081B1816C93808191810196918380832C
:1001C000268137818217930721F484819581918359
:1001D00080832FB7F89482859385019693878287D1
:1001E0002FBF0895FC01A281B3818D91B383A283B7
:1001F00026813781A217B30721F424813581338307
:1002000022839FB7F89422853385215031093387A3
:1002100022879FBF0895E4EAF2E0108211821282E1
:100220001382148215820895E4EAF2E020E030E0BF
:100230009191981771F0911105C0F901EC55FD4F9E
:10024000808307C02F5F3F4F2630310589F78093A9
:10025000A40281E090E00895E4EAF2E020E030E0DA
:100260009191981307C0F901EC55FD4F108281E080
:1002700090E008952F5F3F4F2630310589F780E0E9
:1002800090E0089581E0809302010895089542E08E
:1002900061EC81E0F4D342E060EC82E0F0D3E2EE86
:1002A000F0E080818460808308958091A202909123
:1002B000A302009729F001979093A3028093A202D2
:1002C00008951F93CF93DF93EC0188E0DE011D9228
:1002D0008A95E9F72FB7F89480911402909115024E
:1002E0002FBF892BF1F08AE092E07CDF182F682F76
:1002F000609586E992E05BDF17FF04C0812F8F775E
:10030000ABDF0FC01F3769F0E12FF0E0ED5FFE4F6C
:1003100080818C3911F47FDF04C0112311F0812F0B
:1003200083DFE4EAF2E08AEA92E040E09F01A08104
:10033000AA2359F0BE01640F711DB0E0AD5FBE4F3E
:100340005C91DB0112965C934F5FA081B0E0AD5FE2
:10035000BE4F5C91513E19F4588152605883A08180
:10036000B0E0AD5FBE4F5C91553E19F458815062CC
:100370005883A081B0E0AD5FBE4F5C91503E19F450
:10038000588151605883A081B0E0AD5FBE4F5C9151
:10039000543E19F4588150615883A081B0E0AD5F9C
:1003A000BE4F5C91523E19F4588154605883A0812D
:1003B000B0E0AD5FBE4F5C91563E19F45881506479
:1003C0005883A081B0E0AD5FBE4F5C91533E19F4FD
:1003D0005881586058833196D9012C91A22FB0E0F2
:1003E000AD5FBE4F2C91273E19F4288120682883E9
:1003F0008E179F0709F09ACFDF91CF911F91089533
:10040000CF93DF93CDB7DEB728970FB6F894DEBF52
:100410000FBECDBF8091B002833009F442C030F4EA
:10042000813071F0823009F478C090C08A3009F4CC
:100430005BC08B3009F442C0893009F087C018C016
:100440008091AF02813A09F081C0CE01019639DF77
:100450008091E800877F8093E80068E070E0CE013B
:1004600001964ED28091E8008B778093E8006EC0B1
:100470008091AF02813209F069C08091E800877FE6
:100480008093E8008091E80082FD05C08091AE0273
:100490008111F8CF5BC08091F1008091E8008B77EB
:1004A00052C08091AF02813A09F050C08091E800BB
:1004B000877F8093E8008091020140C08091AF0265
:1004C000813209F043C08091E800877F8093E80083
:1004D0000BD381E02091B1023091B202232B09F4B9
:1004E00080E08093020132C08091AF02813271F5C9
:1004F0008091E800877F8093E800F6D28091B10276
:100500009091B202882736E0969587953A95E1F763
:10051000909301018093000119C08091AF02813A4C
:10052000A9F48091E800877F8093E8008091000122
:100530009091010196958795969587958093F10006
:100540008091E8008E778093E800CED228960FB68F
:10055000F894DEBF0FBECDBFDF91CF910895CF934A
:10056000DF93CDB7DEB728970FB6F894DEBF0FBE86
:10057000CDBFCE010196A5DE8091000190910101D1
:10058000009761F02091A2023091A302232B31F455
:100590009093A3028093A20221E00CC048E050E0B7
:1005A000BE016F5F7F4F82E891E08CD521E0892BFF
:1005B00009F420E081E08093E9008091E80085FF64
:1005C00017C02223A9F088E0FE013196A2E8B1E02D
:1005D00001900D928A95E1F740E050E068E070E00C
:1005E000CE01019643D18091E8008E778093E80098
:1005F00028960FB6F894DEBF0FBECDBFDF91CF9126
:10060000089582E08093E9008091E80082FF0AC0AB
:100610008091E80085FD8091F1008091E8008B7762
:100620008093E80008958091AE02843011F497DF42
:10063000E8CF08951F920F920FB60F9211242F93B7
:100640003F934F935F936F937F938F939F93AF935A
:10065000BF93CF93EF93FF93C091CE00C11104C01D
:100660006FEF86E992E01CC08091AC02882319F0FC
:10067000E8D01092AC028091AE02843091F42FB792
:10068000F89480911402909115022FBF20911202CC
:10069000309113022817390721F06C2F8AE092E07D
:1006A00086DDFF91EF91CF91BF91AF919F918F9197
:1006B0007F916F915F914F913F912F910F900FBE5E
:1006C0000F901F901895CF93DF93A9ECB0E01C9288
:1006D000C8ECD0E01882EAECF0E010825B9A87E682
:1006E00090E09093CD008093CC0082E0888388E9ED
:1006F0008C9386E080835B98DF91CF91089584B7D7
:10070000877F84BF0FB6F894A895809160008861B8
:1007100080936000109260000FBE90E080E80FB6FA
:10072000F89480936100909361000FBE74DD6ED2E7
:10073000CACFE5DFE6E9F2E04FB7F89486E192E050
:1007400091838083938382839583848386E992E077
:100750009783868320E830E03187208713861286CE
:100760004FBFEAE0F2E04FB7F8948AE891E0918356
:10077000808393838283958384838AE092E0978346
:10078000868331872087138612864FBF78948091A5
:10079000C80085FF12C02FB7F8948091A0029091F5
:1007A000A1022FBF892B49F086E992E01BDD9091D1
:1007B000C80095FFFCCF8093CE0035DF69D4E7CF2A
:1007C000292F332723303105E1F058F4213031054A
:1007D00099F02230310569F589E290E02CEF30E0A4
:1007E0002CC02132310501F12232310511F58FE3A0
:1007F00090E027E331E021C082E190E025E231E0A2
:100800001CC099278130910549F028F0029789F49E
:10081000ECEAF0E005C0E8EFF0E002C0ECEDF0E05B
:10082000849190E09F0109C089E090E02EE031E0E2
:1008300004C080E090E020E030E0FA0131832083C2
:10084000089519BC82E089BD09B400FEFDCF8091F6
:10085000D8008F7D8093D8008091E00082608093E3
:10086000E0008091E00081FDFCCF0895CF92DF92FF
:10087000EF92FF920F931F93CF93DF93EC018B01C5
:100880007A0151D1811133C0E114F10439F0F7013B
:1008900080819181081B190BC80FD91FC12CD12C45
:1008A0000115110519F18091E80085FD16C08091B0
:1008B000E8008E778093E800EBD3E114F10449F06F
:1008C000F70180819181C80ED91ED182C08285E056
:1008D0000EC029D1882321F30AC089918093F100A9
:1008E00001501109FFEFCF1ADF0ADACF80E0DF9164
:1008F000CF911F910F91FF90EF90DF90CF900895CF
:100900002091B5023091B6022617370748F06115DD
:10091000710539F42091E8002E772093E80001C09A
:10092000B901FC0120E06115710579F18091AE02F9
:100930008823F1F18530F1F18091E80083FD3CC01E
:100940008091E80082FD2EC08091E80080FFEBCF0F
:100950002091F3008091F20090E0922B61157105D7
:1009600051F08830910538F421912093F1006150C5
:1009700071090196F3CF21E0089709F020E08091FA
:10098000E8008E778093E800CECF2111CFCF0AC048
:100990008091AE02882361F0853061F08091E8009B
:1009A00083FD0AC08091E80082FFF2CF80E00895C5
:1009B00082E0089583E0089581E008952091B502D2
:1009C0003091B6022617370748F06115710539F4E2
:1009D0002091E8002E772093E80001C0B901FC01C6
:1009E00020E06115710591F18091AE02882309F430
:1009F00040C0853009F43FC08091E80083FD3DC0D0
:100A00008091E80082FD2FC08091E80080FFE9CF4F
:100A10002091F3008091F20090E0922B6115710516
:100A200059F08830910540F424912093F1003196DB
:100A3000615071090196F2CF21E0089709F020E09A
:100A40008091E8008E778093E800CBCF2111CCCF46
:100A50000AC08091AE02882361F0853061F08091F8
:100A6000E80083FD0AC08091E80082FFF2CF80E0B9
:100A7000089582E0089583E0089581E00895982F15
:100A8000973068F59093E900981739F07091EC0071
:100A90002091ED005091F00003C0242F762F50E0FC
:100AA00021FD02C09F5FECCF3091EB003E7F309381
:100AB000EB003091ED003D7F3093ED003091EB0085
:100AC00031603093EB007093EC002093ED00509375
:100AD000F0002091EE0027FDE5CF80E008958F70B3
:100AE0008093E90081E008958091AF0287FF11C0F3
:100AF0008091E80082FD05C08091AE028111F8CF9F
:100B000011C08091E8008B770BC08091AE028823E2
:100B100049F08091E80080FFF8CF8091E8008E775F
:100B20008093E80008952091E4003091E50095E677
:100B30004091EC00842F817040FF23C08091E80039
:100B400080FD1DC08091AE02882399F0853099F018
:100B50008091EB0085FD11C04091E4005091E500CB
:100B60002417350729F3915011F09A01E1CF84E061
:100B7000089582E0089583E0089581E0089580E07B
:100B800008954091E80042FFDDCF08950F931F9331
:100B9000CF93DF934BD052D0C8EDD0E088818F77D0
:100BA000888388818068888388818F7D888319BC49
:100BB0001092AE021092AA021092AC021092AB02F6
:100BC00000EE10E0F80180818B7F80838881816056
:100BD000888342E060E080E052DFE1EEF0E0808177
:100BE0008E7F8083E2EEF0E080818160808380816F
:100BF00088608083F80180818E7F80838881806116
:100C00008883DF91CF911F910F910895E8EDF0E077
:100C100080818F7E8083E7EDF0E08081816080833A
:100C200084E082BF81E08093AD02B0CFE8EDF0E0D8
:100C300080818E7F80831092E20008951092DA0006
:100C40001092E10008951F920F920FB60F92112497
:100C50002F933F934F935F936F937F938F939F93C4
:100C6000AF93BF93EF93FF938091E10082FF0AC09F
:100C70008091E20082FF06C08091E1008B7F80932B
:100C8000E10013DB8091DA0080FF1BC08091D80067
:100C900080FF17C08091DA008E7F8093DA00809108
:100CA000D90019BC80FF0AC082E089BD09B400FEEA
:100CB000FDCF81E08093AE02E5DA03C01092AE0270
:100CC000E5DA8091E10080FF18C08091E20080FFAA
:100CD00014C08091E2008E7F8093E2008091E20058
:100CE00080618093E2008091D80080628093D80078
:100CF00019BC85E08093AE02CAD18091E10084FFE7
:100D00002EC08091E20084FF2AC019BC82E089BD18
:100D100009B400FEFDCF8091D8008F7D8093D8006C
:100D20008091E1008F7E8093E1008091E2008F7ED0
:100D30008093E2008091E20081608093E2008091E4
:100D4000AA02882311F084E007C08091E30087FDA8
:100D500002C081E001C083E08093AE0298D180910F
:100D6000E10083FF22C08091E20083FF1EC08091DA
:100D7000E100877F8093E10082E08093AE021092D1
:100D8000AA028091E1008E7F8093E1008091E200D1
:100D90008E7F8093E2008091E20080618093E20088
:100DA00042E060E080E06BDE72D1FF91EF91BF9195
:100DB000AF919F918F917F916F915F914F913F91F3
:100DC0002F910F900FBE0F901F9018951F93CF93E8
:100DD000DF93CDB7DEB7AA970FB6F894DEBF0FBE8C
:100DE000CDBFEFEAF2E08091F100819322E0E73B92
:100DF000F207C9F705DB8091E80083FF30C18091DD
:100E0000AF029091B002953009F483C030F4913074
:100E1000A9F168F0933091F122C1983009F4EFC044
:100E2000993009F4FBC0963009F019C194C080389C
:100E300021F0823809F013C108C08091AB02909173
:100E4000AC02992389F082600FC08091B3028F7049
:100E5000873008F004C18093E9008091EB0085FBA6
:100E6000882780F91092E9009091E800977F90938D
:100E7000E8008093F1001092F100CCC0282F2D7F64
:100E800009F0EDC0882319F0823061F0E8C080914C
:100E9000B102813009F0E3C0933009F080E0809323
:100EA000AC022EC08091B10281112AC08091B302A0
:100EB0008F702FEF280F263008F0D1C08093E90003
:100EC0002091EB0020FF1CC0933021F48091EB00B7
:100ED000806214C09091EB0090619093EB0021E050
:100EE00030E0A90102C0440F551F8A95E2F74093F4
:100EF000EA001092EA008091EB0088608093EB009A
:100F00001092E9008091E800877F8093E800ECDD93
:100F1000A6C08111A4C01091B1021F778091E30097
:100F20008078812B8093E3008091E800877F809315
:100F3000E800DADD8091E80080FFFCCF8091E300DB
:100F400080688093E300111102C082E001C083E059
:100F50008093AE0284C08058823008F080C08091B7
:100F6000B1029091B2028C3D53E0950771F583E098
:100F70008A838AE289834FB7F894DE01139620E0D2
:100F80003EE051E2E32FF0E050935700E49120FF60
:100F900003C0E295EF703F5FEF708E2F90E0EA3074
:100FA00010F0C79601C0C0968D939D932F5F24319A
:100FB00049F74FBF8091E800877F8093E8006AE29D
:100FC00070E0CE0101969CDC14C06091B302709178
:100FD000B402AE014F5F5F4FF3DBBC01892B09F414
:100FE0003EC09091E800977F9093E80089819A81B4
:100FF000E5DC8091E8008B778093E80030C0803892
:1010000071F58091E800877F8093E8008091AA02C3
:101010008093F1008091E8008E7777CF81111FC017
:101020008091B1029091B20299270297C4F4809105
:10103000E800877F8093E8008091B1028093AA0244
:1010400053DD8091AA02811106C08091E30087FDE3
:1010500002C081E001C084E08093AE0218D9809183
:10106000E80083FF0AC08091E800877F8093E80052
:101070008091EB0080628093EB00AA960FB6F89403
:10108000DEBF0FBECDBFDF91CF911F9108950895B0
:10109000CF938091AE02882399F0C091E900CF7080
:1010A0009091EC00892F817090FD80E8C82B109200
:1010B000E9008091E80083FD89DECF70C093E900EC
:1010C000CF910895FB01DC0104C08D91019080193E
:1010D00021F441505040C8F7881B990B0895F894AB
:0210E000FFCF40
:1010E200F4010100321E1F20212223242526272D50
:1010F2002E002A2B141A0815171C180C12132F3045
:101102003139041607090A0B0D0E0F33340028E19A
:10111200001D1B06190511103637389CE5E000E268
:101122002CE600E400000000000000000000494C32
:101132000000504A4D0052514B4E00004F535F5C2D
:10114200590054605D5A6255615E5B6356575800A0
:101152000029003A3B3C3D3E3F4041424344454624
:021162004748FC
:00000001FF
